:08000000803102288731FD2F39
:100F9200F030F000700821008F05F030F00070088A
:100FA2008D0522000F108F100F118F110D148D144B
:100FB2000D158D150630F1001330F000AE30890B9F
:100FC200E02FF00BE02FF10BE02F22000F148F1413
:100FD2000F158F150D108D100D118D110630F100AA
:100FE2001330F000AE30890BF42FF00BF42FF10B1D
:0E0FF200F42FD22F8031022820008731C92F22
:020000040001F9
:08000000FF3FFF3FFF3FFF3F00
:04000E00EA3FFB1EAC
:00000001FF
