:08000000803102288731FD2F39
:100F8000C52F0B110630200095000B19C82FC92F53
:100F9000C12F0800F030F000700821008F05F030FC
:100FA000F00070088D059513151395121512951103
:100FB0001508F83902389500063020009500220007
:100FC0008F010F148F140F158F150F120D108D1028
:100FD0000D118D118731C027873122000F108F101E
:100FE0000F118F110F160D148D140D158D158731DE
:100FF000C0278731DF2F8031022820008731CA2F98
:020000040001F9
:08000000FF3FFF3FFF3FFF3F00
:04000E00EA3FFB1EAC
:00000001FF
